:020000040000FA
:100000000C9463000C948B000C948B000C948B006C
:100010000C948B000C948B000C948B000C94A71404
:100020000C948B000C948B000C948B000C94CC12D1
:100030000C948B000C948B000C948B000C948B0014
:100040000C9482120C948B000C9450120C942A1273
:100050000C948B000C948B000C948B000C948B00F4
:100060000C9488130C948B000000000024002700DF
:100070002A0000000000250028002B0000000008D6
:10008000000201000003040700000000000000005F
:1000900000000000230026002900040404040404D6
:1000A0000404020202020202030303030303010227
:1000B00004081020408001020408102001020408F6
:1000C000102094154C1911241FBECFEFD8E0DEBFCD
:1000D000CDBF11E0A0E0B1E0EEEFFAE302C0059081
:1000E0000D92AC3EB107D9F724E0ACEEB1E001C00F
:1000F0001D92AD38B207E1F710E0C2E6D0E004C0CF
:100100002197FE010E94381CC136D107C9F70E9411
:1001100032160C94721D0C940000CF92DF92EF9275
:10012000FF92DC01A03282E0B807D4F5A53BB1050F
:1001300014F0A4EBB0E04091870428E830E0241BE1
:10014000310947FD3395220F331F220F331F6901F9
:10015000330FEE08FF084091880428E532E0241BA5
:10016000310947FD3395220F331F220F331F032E12
:10017000000C440B550B2C193D094E095F09B7FFC4
:1001800002C0B0E0A0E00E94B71924EB30E040E0EC
:1001900050E00E948D19C20ED31EE41EF51ED6013A
:1001A000E0918604EC3080F52091870488E890E0A7
:1001B000821B910927FD9395880F991F880F991F1E
:1001C000A817B90784F02091880488E592E0821B83
:1001D000910927FD9395880F991F880F991FA817DC
:1001E000B9070CF4CD010297880F991F4FB7F89407
:1001F0002E2F30E0F901EE0FFF1FE20FF31FEB5E31
:10020000FB4F928381834FBFFF90EF90DF90CF90A1
:1002100008958230910538F0880F991F880F991F33
:1002200005970197F1F7089508950895AF92BF9249
:10023000CF92DF92EF92FF920F931F93CF93DF93B2
:100240006C017B018B01040F151FEB015E01AE18E1
:10025000BF08C017D10759F06991D601ED91FC9103
:100260000190F081E02DC6010995892B79F7C50130
:10027000DF91CF911F910F91FF90EF90DF90CF9082
:10028000BF90AF900895FC01538D448D252F30E031
:10029000842F90E0821B930B541710F0CF96089593
:1002A00001970895FC01918D828D981761F0A28DC0
:1002B000AE0FBF2FB11D5D968C91928D9F5F9F7386
:1002C000928F90E008958FEF9FEF0895FC01918D3C
:1002D000828D981731F0828DE80FF11D858D90E0A9
:1002E00008958FEF9FEF0895FC01918D228D892F46
:1002F00090E0805C9F4F821B91098F73992708952E
:100300008CE693E00E94740121E0892B09F420E03F
:10031000822F089580E090E0892B29F00E948001CF
:1003200081110C9400000895FC01A48DA80FB92F31
:10033000B11DA35ABF4F2C91848D90E001968F730D
:100340009927848FA689B7892C93A089B1898C912C
:10035000837080648C93938D848D981306C002887B
:10036000F389E02D80818F7D80830895EF92FF9245
:100370000F931F93CF93DF93EC0181E0888F9B8DC8
:100380008C8D98131AC0E889F989808185FF15C082
:100390009FB7F894EE89FF896083E889F9898081A5
:1003A0008370806480839FBF81E090E0DF91CF9174
:1003B0001F910F91FF90EF900895F62E0B8D10E096
:1003C0000F5F1F4F0F731127E02E8C8D8E110CC005
:1003D0000FB607FCFACFE889F989808185FFF5CF50
:1003E000CE010E949401F1CFEB8DEC0FFD2FF11D9A
:1003F000E35AFF4FF0829FB7F8940B8FEA89FB898D
:1004000080818062CFCFCF93DF93EC01888D8823EA
:10041000B9F0AA89BB89E889F9898C9185FD03C067
:10042000808186FD0DC00FB607FCF7CF8C9185FF4C
:10043000F2CF808185FFEDCFCE010E949401E9CFFC
:10044000DF91CF91089590E0FC01E458FF4F249193
:10045000FC01E255FF4F3491FC01E656FF4FE49159
:10046000EE23C9F0222339F0233001F1A8F4213022
:1004700019F1223029F1F0E0EE0FFF1FEE58FF4F87
:10048000A591B4918FB7F894EC91611126C0309585
:100490003E233C938FBF08952730A9F02830C9F040
:1004A000243049F7809180008F7D03C080918000C7
:1004B0008F7780938000DFCF84B58F7784BDDBCFCB
:1004C00084B58F7DFBCF8091B0008F778093B00093
:1004D000D2CF8091B0008F7DF9CF3E2BDACFCF9372
:1004E000DF9390E0FC01E255FF4F249186569F4F29
:1004F000FC0184918823D1F090E0880F991FFC01C2
:10050000E859FF4FA591B491FC01EE58FF4FC591FA
:10051000D49161110EC09FB7F8948C91E22FE095B1
:100520008E238C932881E223E8839FBFDF91CF91B4
:1005300008958FB7F894EC91E22BEC938FBFF6CF30
:10054000E82FF0E0E458FF4FE491E33011F138F484
:10055000E130A9F0E230C1F060E00C942302E73012
:1005600011F1E83041F1E430B9F780918000806208
:100570008093800070938B0060938A00089584B507
:10058000806884BD67BD089584B5806284BD68BD00
:100590000895809180008068809380007093890026
:1005A0006093880008958091B00080688093B000C7
:1005B0006093B30008958091B00080628093B00092
:1005C0006093B40008953FB7F89480910A03909126
:1005D0000B03A0910C03B0910D0326B5A89B05C099
:1005E0002F3F19F00196A11DB11D3FBFBA2FA92FB2
:1005F000982F8827BC01CD01620F711D811D911DAF
:1006000042E0660F771F881F991F4A95D1F708951A
:100610008F929F92AF92BF92CF92DF92EF92FF9212
:100620004B015C010E94E3026B017C010E94E3022A
:100630006C197D098E099F09683E734081059105FB
:10064000A8F321E0821A9108A108B10888EEC80E2B
:1006500083E0D81EE11CF11C81149104A104B104B3
:1006600029F7FF90EF90DF90CF90BF90AF909F90D1
:100670008F9008952FB7F894609106037091070347
:1006800080910803909109032FBF0895FC01838591
:100690008F3F19F061E00C9423020895FC018081E2
:1006A0009181892B39F0A281B3819C9111968C9113
:1006B0009CBD8DBD83858F3F19F060E00C942302B3
:1006C0000895AF92BF92CF92DF92EF92FF920F9375
:1006D0001F93CF93DF93EC0188819981892B89F057
:1006E0006EBD0DB407FEFDCFBEB48B2DDF91CF9153
:1006F0001F910F91FF90EF90DF90CF90BF90AF9040
:1007000008958885998511E0892B09F010E8AA24BD
:10071000A394862F812309F0A12C062F2C813D81E3
:100720004E815F8160E271EA87E090E00E94BF192C
:10073000F22EB02EE12CC22ED12CFF2019F0C601D2
:100740000E9409018A85877F09F042C08D858F3F0D
:1007500089F0902F912381E009F480E08A1551F00F
:10076000EF85F8898F89992369F19081892B80839E
:10077000AA24A394E989FA898081998D892B8083A1
:10078000FF2019F0C6010E9409018E858F3F39F0C4
:10079000EB89FC898081988D892309F0E12AE98918
:1007A000FA899081898D8095892380838E858F3FFA
:1007B00009F0BE2C88859985892BB9F5110F111187
:1007C000BCCF93CF9081809589238083A12CD2CFF9
:1007D000E989FA898081998D892B8083FF2019F01E
:1007E000C6010E9409018D858F3F49F0EF85F88988
:1007F0008F89902F9123A9F09081892B8083E9899B
:10080000FA899081898D8095892380838E858F3F99
:1008100069F2EB89FC898081988D892339F2E12A7C
:10082000C5CF908180958923E9CF1695C8CF8F9247
:100830009F92AF92BF92CF92DF92EF92FF920F936F
:100840001F93CF93DF937C014B016A01B22EA32E3D
:100850000E944E03E401C80CD91CCC15DD0569F4D7
:10086000CB2DDA2D0C0F1D1FC017D10759F06FEFDC
:10087000C7010E9461038993F7CF6991C7010E9464
:100880006103EBCFC7010E94460381E0DF91CF9166
:100890001F910F91FF90EF90DF90CF90BF90AF909E
:1008A0009F908F9008958F929F92AF92BF92CF9218
:1008B000DF92EF92FF920F931F93CF93DF937C0110
:1008C000B62EA72E6A0149010E944E03E401080DCD
:1008D000191DC017D10761F4CB2DDA2DCC0EDD1E0A
:1008E000CC15DD0551F06991C7010E946103F8CF75
:1008F0006991C7010E946103ECCFC7010E944603C2
:1009000081E0DF91CF911F910F91FF90EF90DF90E9
:10091000CF90BF90AF909F908F90089508950895C5
:100920002091C102260F3327331F21323105ECF409
:1009300020914203FC0190E080E0243069F082E0E5
:100940000895A091C1022191AC014F555D4FA40FB4
:10095000B52FB11D2C930196861798F38091C10293
:10096000680F6093C10280E0089581E008951092BD
:10097000420381E08093410310921C0361E082E115
:100980000E94230261E083E10E942302E9EBF0E090
:1009900080818E7F808380818D7F808388E48093B7
:1009A000B80085E48093BC000895CF93DF9391E075
:1009B0009093A0028823B9F0C091B800D091BA00FA
:1009C0008091BC008A7B8093BC0060E082E10E9441
:1009D000230260E083E10E9423020E94B704D093C7
:1009E000BA00C093B800DF91CF9108958F929F9283
:1009F000AF92BF92CF92DF92EF92FF920F931F932D
:100A0000CF93DF93D0916B03D13208F0D7C0182F6A
:100A1000C0916A030E94E3026B017C018091420352
:100A200081116BC082E080934203109341038FEFEA
:100A30008093400310923F03D0933E03AAE4B3E0B7
:100A4000EEE1F3E080E0D81391C010921D03809195
:100A50001D03CC0FC82BC0931D0380911C03813054
:100A600009F088C010921C030E94E3026B017C0114
:100A700080911D038093BB008091440390914503B6
:100A8000A0914603B0914703892B8A2B8B2BA1F0B1
:100A90000E94E30200914403109145032091460314
:100AA000309147036C197D098E099F0906171707B6
:100AB0002807390708F442C08091BC0083FDD8CFD5
:100AC00085EC8093BC000E94E3026B017C01809165
:100AD0004203823009F450C0809140038F3F09F4F3
:100AE0006FC080914003803209F46CC08091400354
:100AF000803309F469C084E026C08091440390915A
:100B00004503A0914603B0914703892B8A2B8B2B79
:100B100009F484CF0E94E30280904403909045033F
:100B2000A0904603B09047036C197D098E099F0978
:100B300086169706A806B90608F070CF8091430381
:100B40000E94D50485E01092490310926B03109225
:100B50004803DF91CF911F910F91FF90EF90DF90AD
:100B6000CF90BF90AF909F908F9008959D9191935B
:100B70008F5F69CF85EEA5CF8091440390914503A7
:100B8000A0914603B0914703892B8A2B8B2B09F444
:100B90009ECF0E94E30200914403109145032091EF
:100BA0004603309147036C197D098E099F0906178A
:100BB00017072807390708F08ACFC0CF81E0C3CFD5
:100BC00080E0C1CF82E0BFCF83E0BDCF1F93CF9342
:100BD000DF93EA01122FDC0111968D919C91DC01CB
:100BE000ED91FC910280F381E02D0995C817D9079A
:100BF00029F4812F0E94F60491E0811190E0892F61
:100C0000DF91CF911F910895AF92BF92CF92DF9263
:100C1000EF92FF920F931F93CF93DF9300D0CDB746
:100C2000DEB7DC01211103C018962C9118972530EE
:100C300008F043C01F964D935D936D937C9352973C
:100C400090E080E0E22EF12C8E159F05B4F41A9608
:100C50002C911A9721110AC0FD01E80FF91F438753
:100C6000452F562F672F77270196EECFF701E81B08
:100C7000F90BEA0FFB1F4287F3CF6D018BE0C80E23
:100C8000D11C16969C91169717968C91179799835D
:100C90008A83AD90BC901197A114B10409F441C0AE
:100CA00019960C9110E098012E0D3F1DD501149658
:100CB0008D919C918217930710F480E016C0F50186
:100CC00081819281208131E03093480320936A032F
:100CD0001092490310926B030115110599F421E05C
:100CE000A701B601C5010E94E6050F900F90DF91A4
:100CF000CF911F910F91FF90EF90DF90CF90BF9019
:100D0000AF900895DC01ED91FC910280F381E02D1C
:100D1000A801BE016F5F7F4F09950817190769F693
:100D2000DECF1296ED91FC911397309731F2149625
:100D30002D913C91159719960C9110E023303105B7
:100D400071F48E7F89839A830F5F1F4F9E012F5FFF
:100D50003F4FA701B601CF010E945304C6CF211512
:100D6000310519F49F779983F1CF2230310511F4C1
:100D70009068F9CF2130310549F79F779064F3CF20
:100D8000CF93DF93EC018B818823A1F0888191E0E0
:100D90009093480380936A031092490310926B0367
:100DA00081E00E94F60491E0811190E0892FDF91AB
:100DB000CF910895109213031092120310924903D9
:100DC00010926B030E94B70484E191E090930F03AB
:100DD00080930E0385E191E09093110380931003BB
:100DE00081E08B83CE010E94C006982F8111CECF67
:100DF000DDCF0895E091130380911203E81730F4DA
:100E0000F0E0EC51FD4F808190E008958FEF9FEF6F
:100E1000089590911303809112032FEF3FEF9817DD
:100E200048F4E92FF0E0EC51FD4F208130E09F5F66
:100E300090931303C90108958091120390911303B5
:100E4000891B990B0895CF92DF92EF92FF920F9337
:100E50001F93CF93DF937C01CB018A01209148033C
:100E6000222389F0EB016B01C40ED51ECC15DD05E4
:100E700069F06991D701ED91FC910190F081E02D2D
:100E8000C7010995F3CF642F0E949004C801DF9138
:100E9000CF911F910F91FF90EF90DF90CF90089529
:100EA000CF93DF931F92CDB7DEB7698320914803BC
:100EB0002223F9F020916B03203258F021E030E03A
:100EC000FC013383228390E080E00F90DF91CF918B
:100ED000089580914903E82FF0E0E65BFC4F99818B
:100EE00090838F5F8093490380936B0381E090E050
:100EF000ECCF61E0CE0101960E949004F7CF90E024
:100F000080E008952F923F924F925F926F927F926E
:100F10008F929F92AF92BF92CF92DF92EF92FF9209
:100F20000F931F93CF93DF9300D000D0CDB7DEB7E0
:100F3000FC014B01042F9681878199838A8320804D
:100F400031802114310409F439C1418550E0D101C7
:100F500014968D919C9184179507C8F4B12C8B2D14
:100F60000F900F900F900F90DF91CF911F910F91E5
:100F7000FF90EF90DF90CF90BF90AF909F908F90B9
:100F80007F906F905F904F903F902F900895F10168
:100F9000808191E09093480380936A031092490303
:100FA00010926B0320E0BE016F5F7F4FC1010E9472
:100FB000E605B82E882391F2802F90E09C838B83E6
:100FC000D12CC12C01E0AB81BC81CA16DB0638F6FE
:100FD000F101848195817D01EC18FD088E159F0536
:100FE00008F47C01D101AC900E94E3022B013C018A
:100FF00080914203811172C01E2D113208F010E25F
:101000000093420321E08B819C818E199F09C816B1
:10101000D90608F420E020934103BFEFB0934003CA
:1010200010923F038FEF810F80933E0300931D03C7
:1010300080911D03AA0CA82AA0921D0380911C0375
:10104000813009F092C010921C030E94E3022B0130
:101050003C0180911D038093BB00809144039091DB
:101060004503A0914603B0914703892B8A2B8B2B14
:10107000A1F00E94E3022091440330914503409186
:101080004603509147036419750986099709261785
:1010900037074807590708F442C08091BC0083FD18
:1010A000D8CFE5ECE093BC000E94E3022B013C01A9
:1010B00080914203813009F45CC080913F03811725
:1010C00010F410913F03AEE1B3E0E4EEF2E080E013
:1010D000811751F19D9191938F5FFACF80914403D5
:1010E00090914503A0914603B0914703892B8A2B29
:1010F0008B2B09F47DCF0E94E302209144033091B1
:1011000045034091460350914703641975098609C8
:101110009709261737074807590708F069CF8091C4
:1011200043030E94D50410E010921303109312039E
:101130001E151F0409F012CF34016C0C7D1C230115
:10114000C201861997098E159F05A8F5D101119640
:101150008D919C91DC01ED91FC910284F385E02D51
:101160000995F20181932F01EBCFF5EEF093BC00CE
:101170009BCF8091440390914503A0914603B09189
:101180004703892B8A2B8B2B09F492CF0E94E30211
:101190002091440330914503409146035091470309
:1011A00064197509860997092617370748075907EB
:1011B00008F07ECFB4CFCE0CDF1C05CFA281B38167
:1011C000109709F4CBCE2481358110E0418550E0A1
:1011D0002330310571F4816089839A834F5F5F4FBB
:1011E0009401BE016F5F7F4FCD010E941704B82E9E
:1011F000B6CE2115310519F490689983F1CF2230CC
:10120000310511F49F77F9CF2130310549F7906C02
:10121000F4CFCF93DF93EC01BC01655F7F4F48852E
:101220000E948207882301F1488550E030E020E0E9
:1012300060E070E0CB0124173507CCF4982F872F9E
:10124000762F6627EA85E1110AC0FA01E21BF30B4B
:10125000EC0FFD1FE2856E2B2F5F3F4FECCFFE01A1
:10126000E20FF31FE385F7CF6FEF7FEFCB01DF9145
:10127000CF9108958F929F92AF92BF92CF92DF92BB
:10128000EF92FF920F931F93CF93DF93EC014A01EC
:101290005B01888199810E9409092A8101E010E09F
:1012A00002C0000F111F2A95E2F701501109012E0B
:1012B000000C220B330BAB81680179010A2E04C0AC
:1012C000CC0CDD1CEE1CFF1C0A94D2F7C094D09409
:1012D000E094F094C622D722E822F922E881F9812D
:1012E000B901A801482159216A217B2104C0440F7A
:1012F000551F661F771FAA95D2F74C295D296E29C5
:101300007F292085CF01DF91CF911F910F91FF9011
:10131000EF90DF90CF90BF90AF909F908F900C9404
:1013200004060F931F93CF93DF93EC01888199817B
:101330000E940909AB01BC012A8181E090E002C052
:10134000880F991F2A95E2F70197092E000CAA0B26
:10135000BB0B2B8104C076956795579547952A95C9
:10136000D2F78C019D010423152326233723C901BD
:10137000B801DF91CF911F910F910895AF92BF9265
:10138000CF92DF92EF92FF920F931F93CF93DF9351
:10139000CDB7DEB7E8970FB6F894DEBF0FBECDBF6E
:1013A0008C01FC01868D978D1BA21CA21DA21EA282
:1013B0009D8B8C8B1F8A1E8AFF24F394FD8E8BE3FA
:1013C00090E09B8F8A8F1E8E8EE08C8F4EE0BE0148
:1013D000695D7F4FCE0144960E9482078FA198A538
:1013E000982789279827F80195A784A789A59AA502
:1013F00098278927982797A786A78BA59CA5982724
:101400008927982791AB80AB6DA57EA576276727A6
:10141000762773AB62AB8FA598A998278927982761
:1014200095AB84AB89A99AA998278927982797AB68
:1014300086AB8BA99CA998278927982791AF80AF65
:10144000072E000C880B990B0E94051B20E030E052
:101450004AEA53E40E94621A28EB3EE142E152E478
:101460000E94F119F8016283738384839583868DCA
:10147000978D188A198A1A8A1B8A9A8389831C82F3
:101480001B82FA868CE190E098878F831B86F98611
:10149000CE0101965C019EAB8DAB82E08FAB83E009
:1014A00088AFCE01C5960E949109C12CD12CE12CA8
:1014B000E5E4FE2E63307105E1F06230710599F0CC
:1014C0006130710509F4D6C0C12CD12CF0E8EF2EA3
:1014D000FFE3FF2E672B69F4C12CD12C50E8E52ED9
:1014E00056E4F52E06C0C12CD12C70E8E72E75E429
:1014F000F72EF80164A575A5072E000C880B990B33
:101500000E94051BA70196010E94621AF8016683DA
:1015100077838087918766A577A5072E000C880BB7
:10152000990B0E94051BA70196010E94621AF801FF
:10153000628773878487958760A971A9072E000C3D
:10154000880B990B0E94051BA70196010E94621A45
:10155000F80166877787808B918B868D978D188AA7
:10156000198A1A8A1B8A9A8389831C821B8281E0CA
:101570008A872BE130E038872F831B868987BEAAB4
:10158000ADAA82E08FAB83E088AFCE01C5960E9402
:101590009109C12CD12C33E0E32E33E4F32E6115F5
:1015A000710519F1C12CD12C23E8E22E22E4F22E90
:1015B00061307105D1F093E3C92EDC2C93E0E92E64
:1015C00092E4F92E6230710581F0C12CD12C40E8F3
:1015D000E42E4FE3F42E6330710539F483E3C82E13
:1015E000DC2C83E8E82E81E4F82EF80164A975A9C3
:1015F000072E000C880B990B0E94051BA701960172
:101600000E94621AF801628B738B848B958B66A99A
:1016100077A9072E000C880B990B0E94051BA701C8
:1016200096010E94621AF801668B778B808F918FEA
:1016300060AD71AD072E000C880B990B0E94051B45
:10164000A70196010E94621AF801628F738F848F3E
:10165000958FE8960FB6F894DEBF0FBECDBFDF9131
:10166000CF911F910F91FF90EF90DF90CF90BF909F
:10167000AF900895C12CD12CE12C66E4F62E39CF21
:10168000FC0101900020E9F73197AF01481B590B8D
:10169000BC018CE693E00C9416018F929F92AF925E
:1016A000BF920F931F93CF93DF93CDB7DEB7A19770
:1016B0000FB6F894DEBF0FBECDBF19A2423008F4BA
:1016C0004AE08E010F5D1F4F842E912CB12CA12C6E
:1016D000A50194010E94BF19E62FB901CA01EA30A1
:1016E000F4F4E05DD801EE938D01232B242B252B00
:1016F00079F790E080E0109719F0CD010E94400B3F
:10170000A1960FB6F894DEBF0FBECDBFDF91CF918B
:101710001F910F91BF90AF909F908F900895E95CBB
:10172000E1CF4F925F926F927F928F929F92AF9292
:10173000BF92CF92DF92EF92FF926B017C01AC01DE
:101740009B010E94271C8823C1F08BE591E00E9439
:10175000400B7C0187E691E00E94400B8E0D9F1D9F
:10176000FF90EF90DF90CF90BF90AF909F908F90C1
:101770007F906F905F904F90089546015701E894D5
:10178000B7F82FEF3FEF4FE75FE7C501B4010E94C5
:10179000271C81110DC02FEF3FEF4FE75FE7C50119
:1017A000B4010E945D1A18161CF48FE591E0CFCFAA
:1017B0002FEF3FEF4FE75FE4C701B6010E94B51B73
:1017C00018161CF483E691E0C2CF2FEF3FEF4FE7EE
:1017D0005FECC701B6010E945D1A87FDF3CF20E0E0
:1017E00030E0A901C701B6010E945D1AB12CA12CFD
:1017F00087FF0AC06DE28CE693E00E94B6015C01AF
:10180000F7FAF094F7F8F0942AE037ED43EA5BE357
:10181000C701B6010E94F1192B013C010E94D41AA4
:101820006B017C010E94031B9B01AC01C301B2014F
:101830000E94F0192B013C014AE0C701B6010E9449
:101840004D0B7C01EA0CFB1C6EE28CE693E00E94DF
:10185000B601E80EF91E20E030E040E251E4C30199
:10186000B2010E94BA1B2B013C010E94D41A4B0109
:10187000B12CA12C4AE0C501B4010E944D0BE80E29
:10188000F91EC501B4010E94031B9B01AC01C301F9
:10189000B2010E94F01920E030E040E251E40E94E1
:1018A000BA1B0E94D41A90E080E04AE00E944D0BDF
:1018B000E80EF91E4FCF0F931F93CF93DF93EC01E8
:1018C00060E088810E94230283E090E00197F1F7B5
:1018D00061E088810E94230283E290E00197F1F7A2
:1018E00060E088810E942302F894EA81FB81808174
:1018F00091819927FC01E255FF4F6491FC01E65666
:10190000FF4FE491F0E0EE0FFF1FE057FF4F85918E
:10191000949109EE1BE520E030E0462F0E94261549
:10192000611571058105910529F06F5F7F4F8F4F1C
:101930009F4F9F7078940E94031B24E43BE44BE686
:1019400052E40E94621ADF91CF911F910F91089586
:10195000FC0182819381009711F00C94DA1C0895A8
:101960000C94DA1C0C94DA1C0C94DA1C9F92AF9243
:10197000BF92CF92DF92EF92FF920F931F93CF937C
:10198000DF93CDB7DEB7AA970FB6F894DEBF0FBED0
:10199000CDBF8C01DC0197965C934E939697CA015C
:1019A000019699969C938E9398974E5F5F4F9B9666
:1019B0005C934E939A975E962D913C911BA21CA22C
:1019C0001DA21EA23D8B2C8B1F8A1E8A81E08D8F4B
:1019D0004BE650E05B8F4A8F1E8E8C8F188A198AD7
:1019E0001A8A1B8A3A8329831C821B828A8728E6EB
:1019F00030E038872F831B8689875E01B4E1AB0E08
:101A0000B11CB8A6AFA289A787E08AA741E050E041
:101A100060E070E0CE0187960E943A09CE01879679
:101A20000E949109613071058105910539F461E0E9
:101A300070E080E090E00E940803F0CF64E670E080
:101A400080E090E00E94080320E047E050E060E082
:101A500070E0FE0131966F01CF010E94040664E63A
:101A600070E080E090E00E940803D8015E968D91BE
:101A70009C91188A198A1A8A1B8A9A8389831C82E4
:101A80001B82FF24F394FA8689E190E098878F8384
:101A90001B86F98620E040E050E0BA01C6010E94B2
:101AA0000406F801868D978D188A198A1A8A1B8A6E
:101AB0009A8389831C821B82FA868AE190E0988748
:101AC0008F831B86F986DD8ACC8A83E0E82EEE8A36
:101AD0001F8A40E050E0BA01C5010E943A09D801CE
:101AE0005E968D919C91188A198A1A8A1B8A9A830C
:101AF00089831C821B82FA868BE190E098878F8312
:101B00001B86F986DD8ACC8A92E0992E9E8AEF8A1E
:101B100041E050E060E070E0C5010E943A09F80140
:101B2000868D978D188A198A1A8A1B8A9A838983C7
:101B30001C821B82FA868CE190E098878F831B863B
:101B4000F986DD8ACC8A9E8AEF8A40E050E0BA01AD
:101B5000C5010E943A09D8015E968D919C91188A20
:101B6000198A1A8A1B8A9A8389831C821B82FA86A5
:101B70008BE690E098878F831B86F98620E041E012
:101B800050E060E070E0C6010E94040664E670E088
:101B900080E090E00E940803F80180A191A10097E5
:101BA00039F0DC01ED91FC910280F381E02D099583
:101BB000F80182A193A1009739F0DC01ED91FC912D
:101BC0000280F381E02D0995F80184A195A1009789
:101BD00039F0DC01ED91FC910280F381E02D099553
:101BE00086E090E00E943E1CFC0187E291E0918338
:101BF000808380E596E09383828315830483D801F4
:101C00009196FC93EE93909786E090E00E943E1CA4
:101C1000FC0189E191E09183808381E596E09383E3
:101C2000828315830483D8019396FC93EE93929755
:101C300086E090E00E943E1CFC018BE091E09183E5
:101C4000808382E596E09383828315830483D801A1
:101C50009596FC93EE93949781E0AA960FB6F8942C
:101C6000DEBF0FBECDBFDF91CF911F910F91FF90CF
:101C7000EF90DF90CF90BF90AF909F9008950F931B
:101C80001F93CF93DF938C01EB01DC0114968D91B0
:101C90009C910E94BE09F801048115810E943A03BB
:101CA000AB01BC01FE01349680E2DF011D928A95F2
:101CB000E9F784E290E0A0E0B0E088839983AA830A
:101CC000BB83F80182A593A5B0E0A0E08C839D833F
:101CD000AE83BF838DE090E0A0E0B0E08887998775
:101CE000AA87BB87488B598B6A8B7B8B82819381B8
:101CF000A481B5818C8B9D8BAE8BBF8B81E0DF91F6
:101D0000CF911F910F9108958F929F92AF92BF92A2
:101D1000CF92DF92EF92FF920F931F93CF93DF93B7
:101D20008C01EB01DC0114968D919C910E94BE09FF
:101D3000F801048115810E943A03FE01349620E2E5
:101D4000DF011D922A95E9F7C12CD12C7601C394AD
:101D5000C882D982EA82FB82F80126A137A1490113
:101D6000B12CA12C8C829D82AE82BF82C886D9867E
:101D7000EA86FB86688B798B8A8B9B8B2AE038EE10
:101D80004CE151E466817781808591850E94BA1B80
:101D90006C8B7D8B8E8B9F8B2AE038EE4CE151E46F
:101DA000D8011A966D917D918D919C911D970E94FD
:101DB000BA1B688F798F8A8F9B8F2AE038EE4CE1AF
:101DC00051E4F80166857785808991890E94BA1B64
:101DD0006C8F7D8F8E8F9F8F81E0DF91CF911F91D0
:101DE0000F91FF90EF90DF90CF90BF90AF909F90BA
:101DF0008F9008958F929F92AF92BF92CF92DF9271
:101E0000EF92FF921F93CF93DF93CDB7DEB7CC56FF
:101E1000D1090FB6F894DEBF0FBECDBF0E943A03C2
:101E20006B017C018AE394E00E94BE09E9E4F0E0E2
:101E3000EC0FFD1F3C9618E1DF01212F1D922A9522
:101E4000E9F784E290E0A0E0B0E02D968CAF9DAF82
:101E5000AEAFBFAF2D978091640490916504B0E060
:101E6000A0E061968CAF9DAFAEAFBFAF61978DE044
:101E700090E0A0E0B0E065968CAF9DAFAEAFBFAF95
:101E800065976D96CCAEDDAEEEAEFFAE6D978091F0
:101E90003C0490913D04A0913E04B0913F04A19672
:101EA0008CAF9DAFAEAFBFAFA197FE013D96DF01F6
:101EB000212F1D922A95E9F7812C912C54018394AE
:101EC00089829A82AB82BC82809160049091610485
:101ED000B0E0A0E08D839E83AF83B88789869A8621
:101EE000AB86BC86C98ADA8AEB8AFC8A2AE038EE9D
:101EF0004CE151E4609140047091410480914204AE
:101F0000909143040E94BA1B6D8B7E8B8F8B988FB0
:101F10002AE038EE4CE151E46091440470914504AC
:101F200080914604909147040E94BA1B698F7A8F72
:101F30008B8F9C8F2AE038EE4CE151E4609148048D
:101F40007091490480914A0490914B040E94BA1BFD
:101F50006D8F7E8F8F8F98A3FE01F196DF011D920A
:101F60001A95E9F78DA29EA2AFA2B8A6809162044D
:101F700090916304B0E0A0E089A79AA7ABA7BCA7A3
:101F800084E090E0A0E0B0E08DA79EA7AFA7B8AB3B
:101F9000CDAADEAAEFAAF8AE25E33AEF4EE85CE35D
:101FA00060914C0470914D0480914E0490914F04C7
:101FB0000E94BA1B69AF7AAF8BAF9CAF25E33AEFB3
:101FC0004EE85CE36091500470915104809152049A
:101FD000909153040E94BA1B21966CAF7DAF8EAFD7
:101FE0009FAF219725E33AEF4EE85CE360915404FC
:101FF0007091550480915604909157040E94BA1B29
:1020000025966CAF7DAF8EAF9FAF25970E943A03A8
:102010006B017C018091140390911503A09116032C
:10202000B0911703A7019601281B390B4A0B5B0BD4
:10203000CA01B9010E94031B20E030E04AE754E4E2
:102040000E94621A4B015C01C0921403D0921503E6
:10205000E0921603F092170326EE3EE245E652E4C4
:1020600025966CAD7DAD8EAD9FAD25970E94BA1BB8
:10207000A50194010E94BA1B209118033091190305
:1020800040911A0350911B030E94F1196B017C01CE
:1020900020E030E044E353E40E94B51B1816ECF155
:1020A000C0921803D0921903E0921A03F0921B0316
:1020B000C0901803D0901903E0901A03F0901B030E
:1020C00020E030E044E353ECC701B6010E945D1A02
:1020D00087FF10C020E030E044EB53E4C701B601B5
:1020E0000E94F119609318037093190380931A03E7
:1020F00090931B03C459DF4F0FB6F894DEBF0FBE99
:10210000CDBFDF91CF911F91FF90EF90DF90CF90E7
:10211000BF90AF909F908F90089520E030E044EB07
:1021200053E4C701B6010E94F0196093180370933D
:10213000190380931A0390931B03BACF0F931F9335
:10214000CF93DF938C01EB01DC0114968D919C9170
:102150000E94BE09F801048115810E943A03AB0177
:10216000BC01FE01349680E2DF011D928A95E9F7F9
:1021700081E090E0A0E0B0E088839983AA83BB83EC
:10218000F80180A591A5B0E0A0E08C839D83AE838B
:10219000BF8384E090E0A0E0B0E088879987AA87B9
:1021A000BB87488B598B6A8B7B8B25E33AEF4EE8D4
:1021B0005CE362897389848995890E94BA1B6C8B60
:1021C0007D8B8E8B9F8B25E33AEF4EE85CE3D80145
:1021D00056966D917D918D919C9159970E94BA1B55
:1021E000688F798F8A8F9B8F25E33AEF4EE85CE307
:1021F000F801628D738D848D958D0E94BA1B6C8F52
:102200007D8F8E8F9F8F81E0DF91CF911F910F91F6
:1022100008950F931F93CF93DF938C01EB0188E216
:10222000FB0111928A95E9F74BE050E06AE671E014
:10223000CE010E94631D1B8681E090E0A0E0B0E02B
:102240008C879D87AE87BF87F80182819381092E95
:10225000000CAA0BBB0B888B998BAA8BBB8B8DE0D8
:1022600090E0A0E0B0E08C8B9D8BAE8BBF8B1CA26E
:102270001DA21EA21FA280E090E0A0E2B2EC8C8F13
:102280009D8FAE8FBF8F80E090E0A2EDB2E4888F8B
:10229000998FAA8FBB8F84E09DEAA0E4BBE388A35B
:1022A00099A3AAA3BBA3DF91CF911F910F9108958A
:1022B0000F931F93CF93DF938C01EB0188E2FB0117
:1022C00011928A95E9F74BE050E064E771E0CE01A6
:1022D0000E94631D1B8641E050E060E070E04C8787
:1022E0005D876E877F87F80182819381092E000CBC
:1022F000AA0BBB0B888B998BAA8BBB8B4C8B5D8BF2
:102300006E8B7F8B1CA21DA21EA21FA28AE098EEDC
:10231000ACE1B3EC8C8F9D8FAE8FBF8F8AE098EECF
:10232000ACE1B3E4888F998FAA8FBB8F83E29BEDDA
:10233000A9E7BDE388A399A3AAA3BBA3DF91CF918B
:102340001F910F9108950F931F93CF93DF938C01EB
:10235000EB0188E2FB0111928A95E9F74BE050E02E
:102360006EE771E0CE010E94631D1B8681E090E064
:10237000A0E0B0E08C879D87AE87BF87F80182819F
:102380009381092E000CAA0BBB0B888B998BAA8B0F
:10239000BB8B84E090E0A0E0B0E08C8B9D8BAE8B9B
:1023A000BF8B1CA21DA21EA21FA287ED93EAABE069
:1023B000B2EC8C8F9D8FAE8FBF8F87ED93EAABE031
:1023C000B2E4888F998FAA8FBB8F8AE99BEAABE032
:1023D000B9E388A399A3AAA3BBA3DF91CF911F91CF
:1023E0000F91089585ED8093BC00809144039091F6
:1023F0004503A0914603B09147030796A11DB11D67
:1024000023E0B695A795979587952A95D1F72091C2
:10241000BC0024FD03C01092420308954091440380
:10242000509145036091460370914703452B462B1D
:10243000472B69F30097A105B10541F02AE22A95DF
:10244000F1F700C00197A109B109E1CF80914303E1
:102450000C94D5041F920F920FB60F9211242F9354
:102460003F934F935F936F937F938F939F93AF931C
:10247000BF93EF93FF938CE693E00E949401FF914A
:10248000EF91BF91AF919F918F917F916F915F91EC
:102490004F913F912F910F900FBE0F901F90189565
:1024A0001F920F920FB60F9211242F938F939F9329
:1024B000EF93FF93E0917C03F0917D038081E091A5
:1024C0008203F091830382FD1BC09081809185037C
:1024D0008F5F8F7320918603821741F0E09185030F
:1024E000F0E0E459FC4F958F80938503FF91EF91C5
:1024F0009F918F912F910F900FBE0F901F90189565
:102500008081F4CF1F920F920FB60F9211242F9358
:102510003F938F939F93AF93BF93809106039091C6
:102520000703A0910803B09109033091050323E04C
:10253000230F2D3758F50196A11DB11D20930503DA
:102540008093060390930703A0930803B0930903B5
:1025500080910A0390910B03A0910C03B0910D039D
:102560000196A11DB11D80930A0390930B03A093C4
:102570000C03B0930D03BF91AF919F918F913F9149
:102580002F910F900FBE0F901F90189526E8230FE4
:102590000296A11DB11DD2CF1F920F920FB60F92BE
:1025A00011242F933F934F935F936F937F938F9358
:1025B0009F93AF93BF93CF93DF93EF93FF9380915C
:1025C0000403C0913904D0E087FF24C01092850035
:1025D00010928400809104038F5F809304038091A4
:1025E0000403082E000C990B8C179D0724F480918E
:1025F00004038C30C4F1809184009091850004968E
:1026000080349C4908F47AC08091840090918500C0
:10261000049676C080910403082E000C990B8C1749
:102620009D07C4F6E09104038E2FEE0F990BFC0179
:10263000EE0FFF1FE80FF91FEB5EFB4F808186FF57
:10264000C9CFE09104038E2FEE0F990BFC01EE0F22
:10265000FF1FE80FF91FEB5EFB4F808160E08F7377
:102660000E942302B7CF2091840030918500E09131
:1026700004038E2FEE0F990BFC01EE0FFF1FE80FE6
:10268000F91FEB5EFB4F81819281820F931F909324
:10269000890080938800E09104038E2FEE0F990B40
:1026A000FC01EE0FFF1FE80FF91FEB5EFB4F80816F
:1026B00086FF11C0E09104038E2FEE0F990BFC01F1
:1026C000EE0FFF1FE80FF91FEB5EFB4F808161E00B
:1026D0008F730E942302FF91EF91DF91CF91BF9101
:1026E000AF919F918F917F916F915F914F913F91AA
:1026F0002F910F900FBE0F901F90189580E49CE9CA
:1027000090938900809388008FEF80930403E3CF38
:102710001F920F920FB60F9211242F933F934F9356
:102720005F936F937F938F939F93AF93BF93EF9339
:10273000FF938091B900887F803609F44AC0F0F594
:10274000883209F4A7C018F5803109F49BC0B8F4A9
:10275000882309F4F9C0883009F494C0FF91EF91FF
:10276000BF91AF919F918F917F916F915F914F91A9
:102770003F912F910F900FBE0F901F9018958831A9
:1027800009F488C0803251F78093400314C080342C
:1027900009F49DC040F48033B9F38833F9F680938F
:1027A000400385ECB0C0803509F485C0883509F454
:1027B00096C0883499F60E94F211D0CF883909F476
:1027C0008CC038F5883729F050F4883611F08037FE
:1027D00029F683E0809342031092E30257C08838C1
:1027E00009F47BC0803919F0803809F0B7CF8091A7
:1027F000E302803208F071C0E091E30281E08E0FC5
:102800008093E3028091BB00F0E0ED53FD4F8083A5
:102810003DC0803B39F0E0F4803A09F479C0883A51
:1028200009F09CCF84E0809342031092C202109280
:10283000C102E0910E03F0910F0309958091C1024E
:1028400081110FC081E08093C1021092A10209C0E2
:10285000803C09F4A6CF883C09F4A3CF883B09F05B
:102860007DCFE091C20281E08E0F8093C202F0E042
:10287000EF55FD4F80818093BB009091C202809103
:10288000C10229C080911D038093BB0085EC809319
:10289000BC0064CF90913F0380913E03981758F598
:1028A000E0913F0381E08E0F80933F03F0E0E25E12
:1028B000FC4F8081E9CFE0913F0381E08E0F809350
:1028C0003F038091BB00F0E0E25EFC4F808390917B
:1028D0003F0380913E039817C8F285E8D8CFE09176
:1028E0003F0381E08E0F80933F038091BB00F0E0B7
:1028F000E25EFC4F80838091410381115CCF81E0D7
:1029000080931C0384EA8093BC001092420326CF7C
:1029100085EC8093BC00109242038091E3028032E8
:1029200030F4E091E302F0E0ED53FD4F108260914E
:10293000E30270E0E0911003F091110383EC92E068
:1029400009951092E3020ACF1092400334CF1F92F0
:102950000F920FB60F9211242F933F934F936F93C3
:102960007F938F939F93AF93BF93EF93FF93809148
:1029700000018F5F80930001811138C0ECEEF1E01F
:1029800047818581411103C090859923E9F090E04A
:102990003681232F30E0BC01621B730B161617061D
:1029A0004CF4442389F0240F311D2817390764F4AF
:1029B000C9010AC0672B41F04085442329F0241B3C
:1029C000310982179307A4F386838681882349F00F
:1029D0009181A281B3818481911131C09C91892B15
:1029E0008C93399682E0E03AF80751F6ECEEF1E08C
:1029F000808187FD0FC080910001968198130AC0E5
:102A00009181A281B381848191111DC09C91809597
:102A100089238C93399682E0E03AF80749F7FF91D1
:102A2000EF91BF91AF919F918F917F916F914F9156
:102A30003F912F910F900FBE0F901F9018959C9172
:102A400080958923CDCF9C91892BE3CFCF92DF92C4
:102A5000EF92FF920F931F93E82FF92F05C00150BB
:102A600011092109310961F1908196239417B9F375
:102A700005C0015011092109310911F190819623F6
:102A80009413F7CFC12CD12CE12CF12C0AC08FEF7D
:102A9000C81AD80AE80AF80A0C151D052E053F05C4
:102AA00079F080818623841791F36C2D7D2D8E2DF6
:102AB0009F2D1F910F91FF90EF90DF90CF90089581
:102AC00060E070E080E090E01F910F91FF90EF9048
:102AD000DF90CF900895EF92FF920F931F93CF93C3
:102AE000DF93EC01162F072F7A0182E090E00E941D
:102AF0003E1CFC01F182E082188309839B838A8358
:102B000081E090E09D838C8361E0812F0E946F02C1
:102B1000EA81FB8160E08081DF91CF911F910F916D
:102B2000FF90EF900C946F0210926F0310926E035F
:102B300088EE93E0A0E0B0E080937003909371037F
:102B4000A0937203B093730325E331E030936D03D8
:102B500020936C0325EC30E03093790320937803C5
:102B600024EC30E030937B0320937A0320EC30E0B8
:102B700030937D0320937C0321EC30E030937F037E
:102B800020937E0322EC30E0309381032093800376
:102B900026EC30E030938303209382031092850368
:102BA00010928603109287031092880310920C04EF
:102BB00010920B0480930D0490930E04A0930F04C5
:102BC000B093100487E491E090930A048093090481
:102BD000809139048C3008F041C091E0980F9093B7
:102BE00039048093860490E0FC01EE0FFF1FE80F8C
:102BF000F91FEB5EFB4F88EB9BE09283818343E000
:102C000050E062E070E080E894E00E946B1545E0DF
:102C100050E064E070E08AE794E00E946B1547E0C2
:102C200050E066E070E084E794E00E946B1589E56F
:102C300091E090933B0480933A04109259041092CF
:102C4000580410925B0410925A0410925D04109282
:102C50005C0410925F0410925E0408958FEF8093DD
:102C60008604CDCFCF93DF93CDB7DEB767970FB68E
:102C7000F894DEBF0FBECDBF789484B5826084BD6A
:102C800084B5816084BD85B5826085BD85B5816070
:102C900085BD80916E00816080936E0010928100EE
:102CA00080918100826080938100809181008160A9
:102CB000809381008091800081608093800080916A
:102CC000B10084608093B1008091B00081608093F6
:102CD000B00080917A00846080937A0080917A00BD
:102CE000826080937A0080917A00816080937A007C
:102CF00080917A00806880937A001092C100E09100
:102D00007C03F0917D0382E08083E0917803F09171
:102D100079031082E0917A03F0917B0380E1808354
:102D200010928403E0918003F091810386E0808318
:102D3000E0917E03F0917F03808180618083E09148
:102D40007E03F0917F03808188608083E0917E0321
:102D5000F0917F03808180688083E0917E03F09111
:102D60007F0380818F7D8083809186048C3008F082
:102D700051C061E089E00E946F0280918604282F93
:102D800030E0F901EE0FFF1FE20FF31FEB5EFB4F88
:102D90009081907C996090831092870410928804AF
:102DA0002CE0622F0E942C1C829FB001112430E085
:102DB00020E0AB01420F531FFA01EE0FFF1FE40F9B
:102DC000F51FEB5EFB4F908196FD16C02F5F3F4FC6
:102DD0002C30310571F781110FC01092800082E014
:102DE000809381001092850010928400B19A8091A6
:102DF0006F00826080936F00E09186048E2F90E0D8
:102E0000FC01EE0FFF1FE80FF91FEB5EFB4F808107
:102E1000806480838AE590E00E948D008091580450
:102E200090915904009711F00E94DA1C86E090E01E
:102E30000E943E1CFC0188E6808389E094E0928336
:102E40008183138280E290E095838483F093590418
:102E5000E093580405E024E1C22E21E0D22E35E1B2
:102E6000A32E31E0B32E11E0E0905804F090590405
:102E700010921303109212031092490310926B03E5
:102E80000E94B704D0920F03C0920E03B0921103B8
:102E9000A0921003F7011383C7010E94C00681119D
:102EA000FAC06AE070E080E090E00E940803015000
:102EB000D9F688E891E00E94400B87E691E00E94F5
:102EC000400B6AE070E080E090E00E940803F9CFD8
:102ED0008F3609F0D5C10CE010E08AE794E00E943B
:102EE0005B0C20E030E04CE852E40E94B51B87FD0B
:102EF00023C06AE070E080E090E00E94080380E870
:102F000094E00E945B0C20E030E048EC51E40E9429
:102F1000B51B87FF8FC08AE690E00E948D0062E3B8
:102F200070E080E090E00E94080361E08BE00E9486
:102F30006F0262E370E08EC08AE794E00E945B0C4F
:102F400020E030E0A9010E945D1A882391F28AE511
:102F500090E00E948D0061E08BE00E946F026CE3C4
:102F600070E08BE00E94A00260E08AE00E942302F1
:102F700061E08CE00E94230262E370E080E090E078
:102F80000E94080361E08BE00E946F0260E08BE02A
:102F90000E94230260E08AE00E94230260E08CE04D
:102FA0000E94230268EE73E080E090E00E94080334
:102FB00068EE73E080E090E00E940803109218032E
:102FC0001092190310921A0310921B030E94FA0E1A
:102FD000C0901803D0901903E0901A03F0901B03DF
:102FE00062E370E080E090E00E940803C701B60150
:102FF0000E94910B20E030E04AEA52ECC701B60192
:103000000E94B51B87FD32C082E890E00E948D00CF
:1030100061E08BE00E946F0261E470E08BE00E944F
:10302000A00261E08AE00E94230260E08CE00E943E
:103030002302CCCF8AE490E00E948D0062E370E02E
:1030400080E090E00E94080361E08BE00E946F0244
:103050006CE370E08BE00E94A00261E08AE00E94D5
:10306000230260E08CE00E94230237CF8AE590E0E3
:103070000E948D0061E08BE00E946F0260E08BE0B7
:103080000E94230260E08AE00E942302015011099D
:1030900009F023CFF5C08091580490915904188A03
:1030A000198A1A8A1B8A9A8389831C821B821A872F
:1030B00085E790E098878F831B861987CE0101965C
:1030C0007C010E940909683671058105910509F0A6
:1030D000F0CE40E050E0BA018AE394E00E94B60CE2
:1030E000882309F4E6CE8091580490915904188AF7
:1030F000198A1A8A1B8A9A8389831C821B821A87DF
:103100008CE190E098878F831B861987FD8AEC8A73
:1031100082E0D82EDE8A03E00F8B42E050E060E0D0
:1031200070E0CE0144960E943A0980915804909133
:103130005904188A198A1A8A1B8A9A8389831C82DD
:103140001B821A878BE190E098878F831B861987F3
:10315000FD8AEC8ADE8A0F8B41E050E060E070E08F
:10316000CE0144960E943A098091580490915904E6
:10317000188A198A1A8A1B8A9A8389831C821B825D
:103180001A878AE190E098878F831B861987FD8ACA
:10319000EC8A0E8B1F8A44E050E060E070E0CE01C4
:1031A00044960E943A090E943A0360931403709374
:1031B0001503809316039093170390E0A92E90E0D7
:1031C000B92E0E94FA0EC0901803D0901903E09017
:1031D0001A03F0901B0384EA91E00E94400BC701A0
:1031E000B6010E94910B8AEA91E00E94400B80E8B0
:1031F00094E00E945B0C0E94910B6CE370E080E015
:1032000090E00E9408038CEB91E00E94400B84E761
:1032100094E00E945B0C0E94910B6CE370E080E0F4
:1032200090E00E9408038EEC91E00E94400B8AE738
:1032300094E00E945B0C0E94910B6CE370E080E0D4
:1032400090E00E9408038CE693E00E947401892BB1
:10325000B9F08CE693E00E945201823709F038CE33
:10326000109218031092190310921A0310921B0364
:1032700081EE91E00E94400B87E691E00E94400BB6
:10328000A114B10409F49DCF0E948001882309F4A0
:1032900098CF0E94000095CF89E591E090933B0480
:1032A00080933A0480915A0490915B04009739F01E
:1032B000DC01ED91FC910280F381E02D0995809174
:1032C0005C0490915D04009739F0DC01ED91FC9174
:1032D0000280F381E02D099580915E0490915F0456
:1032E000009739F0DC01ED91FC910280F381E02D33
:1032F00009958091580490915904009711F00E940B
:10330000DA1C84E794E00E94A80C8AE794E00E940B
:10331000A80C80E894E00C94A80C052E97FB1EF4F2
:1033200000940E94A41957FD07D00E94BF1907FC02
:1033300003D04EF40C94A4195095409530952195E6
:103340003F4F4F4F5F4F08959095809570956195D1
:103350007F4F8F4F9F4F08950E94E119A59F900DB9
:10336000B49F900DA49F800D911D11240895B7FF67
:103370000C94AC190E94AC19821B930B0895A1E226
:103380001A2EAA1BBB1BFD010DC0AA1FBB1FEE1FDF
:10339000FF1FA217B307E407F50720F0A21BB30B2A
:1033A000E40BF50B661F771F881F991F1A9469F7A6
:1033B00060957095809590959B01AC01BD01CF0102
:1033C0000895A29FB001B39FC001A39F700D811DFE
:1033D0001124911DB29F700D811D1124911D08951E
:1033E0005058BB27AA270E94081A0C947B1B0E94E6
:1033F0006D1B38F00E94741B20F039F49F3F19F4C4
:1034000026F40C946A1B0EF4E095E7FB0C94641B05
:10341000E92F0E948C1B58F3BA17620773078407C1
:10342000950720F079F4A6F50C94AE1B0EF4E09508
:103430000B2EBA2FA02D0B01B90190010C01CA016E
:10344000A0011124FF27591B99F0593F50F4503E19
:1034500068F11A16F040A22F232F342F4427585F0B
:10346000F3CF469537952795A795F0405395C9F723
:103470007EF41F16BA0B620B730B840BBAF09150DB
:10348000A1F0FF0FBB1F661F771F881FC2F70EC07A
:10349000BA0F621F731F841F48F48795779567954D
:1034A000B795F7959E3F08F0B0CF9395880F08F039
:1034B0009927EE0F9795879508950E94401B08F471
:1034C00081E008950E94761A0C947B1B0E94741B65
:1034D00058F00E946D1B40F029F45F3F29F00C94D6
:1034E000641B51110C94AF1B0C946A1B0E948C1B23
:1034F00068F39923B1F3552391F3951B550BBB2723
:10350000AA2762177307840738F09F5F5F4F220F67
:10351000331F441FAA1FA9F335D00E2E3AF0E0E85E
:1035200032D091505040E695001CCAF72BD0FE2FA8
:1035300029D0660F771F881FBB1F2617370748073C
:10354000AB07B0E809F0BB0B802DBF01FF279358F4
:103550005F4F3AF09E3F510578F00C94641B0C9439
:10356000AF1B5F3FE4F3983ED4F38695779567955C
:10357000B795F7959F5FC9F7880F911D9695879529
:1035800097F90895E1E0660F771F881FBB1F621748
:1035900073078407BA0720F0621B730B840BBA0B06
:1035A000EE1F88F7E09508950E94941B88F09F57BE
:1035B00098F0B92F9927B751B0F0E1F0660F771F57
:1035C000881F991F1AF0BA95C9F714C0B13091F04D
:1035D0000E94AE1BB1E008950C94AE1B672F782FAC
:1035E0008827B85F39F0B93FCCF386957795679512
:1035F000B395D9F73EF490958095709561957F4F7E
:103600008F4F9F4F0895E89409C097FB3EF4909523
:103610008095709561957F4F8F4F9F4F9923A9F0AB
:10362000F92F96E9BB279395F6958795779567953A
:10363000B795F111F8CFFAF4BB0F11F460FF1BC07E
:103640006F5F7F4F8F4F9F4F16C0882311F096E911
:1036500011C0772321F09EE8872F762F05C06623BF
:1036600071F096E8862F70E060E02AF09A95660F78
:10367000771F881FDAF7880F9695879597F9089531
:10368000990F0008550FAA0BE0E8FEEF1616170673
:10369000E807F907C0F012161306E407F50798F0DB
:1036A000621B730B840B950B39F40A2661F0232BF4
:1036B000242B252B21F408950A2609F4A140A69570
:1036C0008FEF811D811D089597F99F6780E870E055
:1036D00060E008959FEF80EC089500240A94161688
:1036E000170618060906089500240A9412161306F0
:1036F000140605060895092E0394000C11F488237E
:1037000052F0BB0F40F4BF2B11F460FF04C06F5F99
:103710007F4F8F4F9F4F089557FD9058440F551F6F
:1037200059F05F3F71F04795880F97FB991F61F043
:103730009F3F79F087950895121613061406551FBA
:10374000F2CF4695F1DF08C0161617061806991F26
:10375000F1CF86957105610508940895E894BB271B
:1037600066277727CB0197F908950E94401B08F43C
:103770008FEF08950E94CD1B0C947B1B0E946D1B44
:1037800038F00E94741B20F0952311F00C94641BF8
:103790000C946A1B11240C94AF1B0E948C1B70F3B9
:1037A000959FC1F3950F50E0551F629FF001729FE6
:1037B000BB27F00DB11D639FAA27F00DB11DAA1FF5
:1037C000649F6627B00DA11D661F829F2227B00D42
:1037D000A11D621F739FB00DA11D621F839FA00DCD
:1037E000611D221F749F3327A00D611D231F849F1D
:1037F000600D211D822F762F6A2F11249F57504074
:103800009AF0F1F088234AF0EE0FFF1FBB1F661FEE
:10381000771F881F91505040A9F79E3F510580F0B7
:103820000C94641B0C94AF1B5F3FE4F3983ED4F3FD
:10383000869577956795B795F795E7959F5FC1F75B
:10384000FE2B880F911D9695879597F908950E94F4
:10385000401B880B990B0895991B79E004C0991FB0
:10386000961708F0961B881F7A95C9F780950895DA
:10387000EE0FFF1F0590F491E02D09940F931F9315
:10388000CF93DF938230910510F482E090E0E091D5
:103890008B04F0918C0430E020E0B0E0A0E03097A1
:1038A00099F42115310509F44AC0281B390B24303D
:1038B0003105D8F58A819B816115710589F1FB017C
:1038C00093838283FE0111C0408151810281138163
:1038D00048175907E0F04817590799F4109761F015
:1038E00012960C93129713961C933296CF01DF9188
:1038F000CF911F910F91089500938B0410938C0426
:10390000F4CF2115310551F04217530738F0A901C2
:10391000DB019A01BD01DF01F801C1CFEF01F9CF51
:1039200090938C0480938B04CDCFFE01E20FF31FA4
:10393000819391932250310939832883D7CF2091E5
:10394000890430918A04232B41F4209103013091A2
:10395000040130938A04209389042091010130915D
:1039600002012115310541F42DB73EB74091050103
:1039700050910601241B350BE0918904F0918A04D3
:10398000E217F307A0F42E1B3F0B2817390778F036
:10399000AC014E5F5F4F2417350748F04E0F5F1F95
:1039A00050938A0440938904819391939FCFF0E0D0
:1039B000E0E09CCFCF93DF930097E9F0FC013297D2
:1039C00013821282A0918B04B0918C04ED0130E03F
:1039D00020E01097A1F420813181820F931F209164
:1039E000890430918A042817390709F061C0F093DF
:1039F0008A04E0938904DF91CF910895EA01CE17FC
:103A0000DF07E8F54A815B819E0141155105B1F759
:103A1000E901FB83EA8349915991C40FD51FEC1743
:103A2000FD0761F4808191810296840F951FE90161
:103A300099838883828193819B838A83F0E0E0E08D
:103A400012968D919C9113970097B9F52D913C9109
:103A50001197CD010296820F931F20918904309116
:103A60008A042817390739F6309751F510928C04DB
:103A700010928B04B0938A04A0938904BCCFD383A3
:103A8000C28340815181840F951FC817D90761F403
:103A90004E5F5F4F88819981480F591F5183408342
:103AA0008A819B81938382832115310509F0B0CFF0
:103AB000F0938C04E0938B049ECFFD01DC01C0CF1A
:103AC00013821282D7CFFB01DC014150504048F0F5
:103AD00001900D920020C9F701C01D924150504045
:103AE000E0F7089510E0C2E6D0E004C0FE010E94B5
:103AF000381C2196C336D107C9F7F894FFCFFF00D1
:103B0000008D048000000000008E04B00C8F049E25
:103B100010A311000000008E04B20C8F04840E5814
:103B200011000000008E04B40C8F043F0E09110038
:103B3000000000B601160143010302740152016640
:103B40000100000000500723077F07F9061C070942
:103B500007FA0600000000B60C6E616E00696E6622
:103B6000006F7666000D0A004D5055363035305FD7
:103B700054004D5055363035305F41004D5055366C
:103B80003035305F47004661696C656420746F2092
:103B900066696E64204D5055363035302063686953
:103BA00070005961773A2000556C747261736F6EC2
:103BB0006963206C6566743A2000556C7472617399
:103BC0006F6E696320726967683A2000556C747281
:103BD00061736F6E69632066726F6E743A2000596C
:0A3BE000617720726573657421009F
:107E0000112484B714BE81FFF0D085E080938100F7
:107E100082E08093C00088E18093C10086E0809377
:107E2000C20080E18093C4008EE0C9D0259A86E02C
:107E300020E33CEF91E0309385002093840096BBD3
:107E4000B09BFECF1D9AA8958150A9F7CC24DD24C4
:107E500088248394B5E0AB2EA1E19A2EF3E0BF2EE7
:107E6000A2D0813461F49FD0082FAFD0023811F036
:107E7000013811F484E001C083E08DD089C08234E0
:107E800011F484E103C0853419F485E0A6D080C0E4
:107E9000853579F488D0E82EFF2485D0082F10E0AE
:107EA000102F00270E291F29000F111F8ED06801E7
:107EB0006FC0863521F484E090D080E0DECF843638
:107EC00009F040C070D06FD0082F6DD080E0C81688
:107ED00080E7D80618F4F601B7BEE895C0E0D1E017
:107EE00062D089930C17E1F7F0E0CF16F0E7DF06D8
:107EF00018F0F601B7BEE89568D007B600FCFDCFD4
:107F0000A601A0E0B1E02C9130E011968C91119780
:107F100090E0982F8827822B932B1296FA010C0160
:107F200087BEE89511244E5F5F4FF1E0A038BF0790
:107F300051F7F601A7BEE89507B600FCFDCF97BE46
:107F4000E89526C08437B1F42ED02DD0F82E2BD052
:107F50003CD0F601EF2C8F010F5F1F4F84911BD097
:107F6000EA94F801C1F70894C11CD11CFA94CF0C13
:107F7000D11C0EC0853739F428D08EE10CD085E9AC
:107F80000AD08FE07ACF813511F488E018D01DD067
:107F900080E101D065CF982F8091C00085FFFCCF94
:107FA0009093C60008958091C00087FFFCCF809118
:107FB000C00084FD01C0A8958091C6000895E0E648
:107FC000F0E098E1908380830895EDDF803219F02E
:107FD00088E0F5DFFFCF84E1DECF1F93182FE3DFCA
:107FE0001150E9F7F2DF1F91089580E0E8DFEE27F6
:047FF000FF270994CA
:027FFE00040479
:00000001FF
